{
  "contractName": "Insurance",
  "abi": [
    {
      "inputs": [
        {
          "internalType": "address",
          "name": "",
          "type": "address"
        }
      ],
      "name": "clients",
      "outputs": [
        {
          "internalType": "uint256",
          "name": "age",
          "type": "uint256"
        },
        {
          "internalType": "string",
          "name": "name",
          "type": "string"
        },
        {
          "internalType": "string",
          "name": "ipfs",
          "type": "string"
        },
        {
          "internalType": "string",
          "name": "date",
          "type": "string"
        }
      ],
      "stateMutability": "view",
      "type": "function",
      "constant": true
    },
    {
      "inputs": [
        {
          "internalType": "address",
          "name": "address_",
          "type": "address"
        },
        {
          "internalType": "uint256",
          "name": "age_",
          "type": "uint256"
        },
        {
          "internalType": "string",
          "name": "_name",
          "type": "string"
        },
        {
          "internalType": "string",
          "name": "_ipfs",
          "type": "string"
        },
        {
          "internalType": "string",
          "name": "_date",
          "type": "string"
        }
      ],
      "name": "setClient",
      "outputs": [],
      "stateMutability": "nonpayable",
      "type": "function"
    },
    {
      "inputs": [
        {
          "internalType": "address",
          "name": "address_",
          "type": "address"
        },
        {
          "internalType": "string",
          "name": "_ipfs",
          "type": "string"
        }
      ],
      "name": "updateIPfs",
      "outputs": [],
      "stateMutability": "nonpayable",
      "type": "function"
    },
    {
      "inputs": [
        {
          "internalType": "address",
          "name": "address_",
          "type": "address"
        }
      ],
      "name": "getClients",
      "outputs": [
        {
          "components": [
            {
              "internalType": "uint256",
              "name": "age",
              "type": "uint256"
            },
            {
              "internalType": "string",
              "name": "name",
              "type": "string"
            },
            {
              "internalType": "string",
              "name": "ipfs",
              "type": "string"
            },
            {
              "internalType": "string",
              "name": "date",
              "type": "string"
            }
          ],
          "internalType": "struct Insurance.Client",
          "name": "",
          "type": "tuple"
        }
      ],
      "stateMutability": "view",
      "type": "function",
      "constant": true
    }
  ],
  "bytecode": "0x608060405234801561001057600080fd5b50610e04806100206000396000f3fe608060405234801561001057600080fd5b506004361061004c5760003560e01c806320245a391461005157806361eed2a91461006d578063944a10af146100a0578063d2812008146100d0575b600080fd5b61006b600480360381019061006691906107c4565b6100ec565b005b61008760048036038101906100829190610893565b610175565b604051610097949392919061094e565b60405180910390f35b6100ba60048036038101906100b59190610893565b61033d565b6040516100c79190610a72565b60405180910390f35b6100ea60048036038101906100e59190610a94565b610555565b005b60008060008773ffffffffffffffffffffffffffffffffffffffff1673ffffffffffffffffffffffffffffffffffffffff1681526020019081526020016000209050848160000181905550838160010190816101489190610cfc565b508281600201908161015a9190610cfc565b508181600301908161016c9190610cfc565b50505050505050565b600060205280600052604060002060009150905080600001549080600101805461019e90610b1f565b80601f01602080910402602001604051908101604052809291908181526020018280546101ca90610b1f565b80156102175780601f106101ec57610100808354040283529160200191610217565b820191906000526020600020905b8154815290600101906020018083116101fa57829003601f168201915b50505050509080600201805461022c90610b1f565b80601f016020809104026020016040519081016040528092919081815260200182805461025890610b1f565b80156102a55780601f1061027a576101008083540402835291602001916102a5565b820191906000526020600020905b81548152906001019060200180831161028857829003601f168201915b5050505050908060030180546102ba90610b1f565b80601f01602080910402602001604051908101604052809291908181526020018280546102e690610b1f565b80156103335780601f1061030857610100808354040283529160200191610333565b820191906000526020600020905b81548152906001019060200180831161031657829003601f168201915b5050505050905084565b6103456105ae565b6000808373ffffffffffffffffffffffffffffffffffffffff1673ffffffffffffffffffffffffffffffffffffffff168152602001908152602001600020604051806080016040529081600082015481526020016001820180546103a890610b1f565b80601f01602080910402602001604051908101604052809291908181526020018280546103d490610b1f565b80156104215780601f106103f657610100808354040283529160200191610421565b820191906000526020600020905b81548152906001019060200180831161040457829003601f168201915b5050505050815260200160028201805461043a90610b1f565b80601f016020809104026020016040519081016040528092919081815260200182805461046690610b1f565b80156104b35780601f10610488576101008083540402835291602001916104b3565b820191906000526020600020905b81548152906001019060200180831161049657829003601f168201915b505050505081526020016003820180546104cc90610b1f565b80601f01602080910402602001604051908101604052809291908181526020018280546104f890610b1f565b80156105455780601f1061051a57610100808354040283529160200191610545565b820191906000526020600020905b81548152906001019060200180831161052857829003601f168201915b5050505050815250509050919050565b60008060008473ffffffffffffffffffffffffffffffffffffffff1673ffffffffffffffffffffffffffffffffffffffff1681526020019081526020016000209050818160020190816105a89190610cfc565b50505050565b6040518060800160405280600081526020016060815260200160608152602001606081525090565b6000604051905090565b600080fd5b600080fd5b600073ffffffffffffffffffffffffffffffffffffffff82169050919050565b6000610615826105ea565b9050919050565b6106258161060a565b811461063057600080fd5b50565b6000813590506106428161061c565b92915050565b6000819050919050565b61065b81610648565b811461066657600080fd5b50565b60008135905061067881610652565b92915050565b600080fd5b600080fd5b6000601f19601f8301169050919050565b7f4e487b7100000000000000000000000000000000000000000000000000000000600052604160045260246000fd5b6106d182610688565b810181811067ffffffffffffffff821117156106f0576106ef610699565b5b80604052505050565b60006107036105d6565b905061070f82826106c8565b919050565b600067ffffffffffffffff82111561072f5761072e610699565b5b61073882610688565b9050602081019050919050565b82818337600083830152505050565b600061076761076284610714565b6106f9565b90508281526020810184848401111561078357610782610683565b5b61078e848285610745565b509392505050565b600082601f8301126107ab576107aa61067e565b5b81356107bb848260208601610754565b91505092915050565b600080600080600060a086880312156107e0576107df6105e0565b5b60006107ee88828901610633565b95505060206107ff88828901610669565b945050604086013567ffffffffffffffff8111156108205761081f6105e5565b5b61082c88828901610796565b935050606086013567ffffffffffffffff81111561084d5761084c6105e5565b5b61085988828901610796565b925050608086013567ffffffffffffffff81111561087a576108796105e5565b5b61088688828901610796565b9150509295509295909350565b6000602082840312156108a9576108a86105e0565b5b60006108b784828501610633565b91505092915050565b6108c981610648565b82525050565b600081519050919050565b600082825260208201905092915050565b60005b838110156109095780820151818401526020810190506108ee565b60008484015250505050565b6000610920826108cf565b61092a81856108da565b935061093a8185602086016108eb565b61094381610688565b840191505092915050565b600060808201905061096360008301876108c0565b81810360208301526109758186610915565b905081810360408301526109898185610915565b9050818103606083015261099d8184610915565b905095945050505050565b6109b181610648565b82525050565b600082825260208201905092915050565b60006109d3826108cf565b6109dd81856109b7565b93506109ed8185602086016108eb565b6109f681610688565b840191505092915050565b6000608083016000830151610a1960008601826109a8565b5060208301518482036020860152610a3182826109c8565b91505060408301518482036040860152610a4b82826109c8565b91505060608301518482036060860152610a6582826109c8565b9150508091505092915050565b60006020820190508181036000830152610a8c8184610a01565b905092915050565b60008060408385031215610aab57610aaa6105e0565b5b6000610ab985828601610633565b925050602083013567ffffffffffffffff811115610ada57610ad96105e5565b5b610ae685828601610796565b9150509250929050565b7f4e487b7100000000000000000000000000000000000000000000000000000000600052602260045260246000fd5b60006002820490506001821680610b3757607f821691505b602082108103610b4a57610b49610af0565b5b50919050565b60008190508160005260206000209050919050565b60006020601f8301049050919050565b600082821b905092915050565b600060088302610bb27fffffffffffffffffffffffffffffffffffffffffffffffffffffffffffffffff82610b75565b610bbc8683610b75565b95508019841693508086168417925050509392505050565b6000819050919050565b6000610bf9610bf4610bef84610648565b610bd4565b610648565b9050919050565b6000819050919050565b610c1383610bde565b610c27610c1f82610c00565b848454610b82565b825550505050565b600090565b610c3c610c2f565b610c47818484610c0a565b505050565b5b81811015610c6b57610c60600082610c34565b600181019050610c4d565b5050565b601f821115610cb057610c8181610b50565b610c8a84610b65565b81016020851015610c99578190505b610cad610ca585610b65565b830182610c4c565b50505b505050565b600082821c905092915050565b6000610cd360001984600802610cb5565b1980831691505092915050565b6000610cec8383610cc2565b9150826002028217905092915050565b610d05826108cf565b67ffffffffffffffff811115610d1e57610d1d610699565b5b610d288254610b1f565b610d33828285610c6f565b600060209050601f831160018114610d665760008415610d54578287015190505b610d5e8582610ce0565b865550610dc6565b601f198416610d7486610b50565b60005b82811015610d9c57848901518255600182019150602085019450602081019050610d77565b86831015610db95784890151610db5601f891682610cc2565b8355505b6001600288020188555050505b50505050505056fea264697066735822122054f95b00a55153cd89c24d8816ed408dbeec75ae7130df51ba1ab05f75ccafb664736f6c63430008110033",
  "immutableReferences": {},
  "source": "// SPDX-License-Identifier: MIT\r\npragma solidity ^0.8.17;\r\n\r\ncontract Insurance {\r\n    struct Client {\r\n        uint256 age;\r\n        string name;\r\n        string ipfs;\r\n        string date;\r\n    }\r\n\r\n    mapping(address => Client) public clients;\r\n\r\n    function setClient(\r\n        address address_,\r\n        uint256 age_,\r\n        string memory _name,\r\n        string memory _ipfs,\r\n        string memory _date\r\n    ) public {\r\n        Client storage c = clients[address_];\r\n        c.age = age_;\r\n        c.name = _name;\r\n        c.ipfs = _ipfs;\r\n        c.date = _date;\r\n    }\r\n\r\n    function updateIPfs(\r\n        address address_,        \r\n        string memory _ipfs\r\n    ) public {\r\n        // Client storage c = clients[address_];\r\n        // c.age = age_;\r\n        // c.name = _name;\r\n        // c.ipfs = _ipfs;\r\n        // c.date = _date;\r\n        Client storage c= clients[address_];\r\n        c.ipfs=_ipfs;\r\n    }\r\n\r\n    function getClients(address address_)\r\n        external\r\n        view\r\n        returns (Client memory)\r\n    {\r\n        return clients[address_];\r\n    }\r\n}\r\n",
  "sourcePath": "C:\\Users\\HP\\Desktop\\truffle\\contracts\\Client.sol",
  "compiler": {
    "name": "solc",
    "version": "0.8.17+commit.8df45f5f.Emscripten.clang"
  },
  "schemaVersion": "3.4.11",
  "updatedAt": "2023-01-26T09:55:04.475Z",
  "networkType": "ethereum",
  "devdoc": {
    "kind": "dev",
    "methods": {},
    "version": 1
  },
  "userdoc": {
    "kind": "user",
    "methods": {},
    "version": 1
  }
}